:0600000002080B021103CF
:03000B0002110BD4
:03001300021113C4
:03001B0002111BB4
:03002300021123A4
:03002B0002112B94
:0300330002113384
:03003B0002113B74
:0300430002114364
:03004B0002114B54
:0300530002115344
:03005B0002115B34
:0300630002116324
:03006B0002116B14
:0300730002117304
:10007B0002117B120422600302018212044064030A
:10008B0060030201829000767403120392120451F2
:10009B00F0A37410F0A3744212037AFFFEFDFC90E0
:1000AB00001F120C6AE4FFFEFDFC900023120C6A89
:1000BB00E490001DF0A3F090002BE0540FF50FE43B
:1000CB00F510E510C3950F504490001F120402C0A9
:1000DB0000C001C002C00312040E742C2510F5825F
:1000EB00E43400F583E07E00A807088005C333CE17
:1000FB0033CED8F9FFEE3395E0FDFCD003D002D020
:10010B0001D00090001F1203AD051080B590002B9D
:10011B00E0C4540FF50FE4F510E510C3950F5044F0
:10012B00900023120402C000C001C002C0031204DD
:10013B000E74302510F582E43400F583E07E00A8C0
:10014B0007088005C333CE33CED8F9FFEE3395E0E5
:10015B00FDFCD003D002D001D0009000231203ADE0
:10016B00051080B5E490007FF0900027E054F71263
:10017B00042D4404F0800D1203251203FAF09000B5
:10018B00807413F0900027E020E02190001F1203F1
:10019B0084FFE4FB7A10F9F8D3120C46500E1203CD
:1001AB0081FFE47A6EF8C3120C46501E120325121F
:1001BB0003FAF0900027E090008030E0057413F014
:1001CB008008742212042D4403F07F00228B0A8ACC
:1001DB000B890C750E01E9250EF9E43AFA120C2D78
:1001EB00F50D54F024F0606424F070030202A62491
:1001FB00206003020324900028E50DF012035E90AB
:10020B00002912034B90002AF0AF0E7E00EF24035F
:10021B00FDEE33FC12036B90002BF0EF2404120362
:10022B004F90002CF0AF0E7E00EF2405FDEE33FC5B
:10023B0012036B90002DF0EF240612034F90002E4B
:10024B00F0120D0312041BF054FEF02212035E9009
:10025B00002812034B900029F0E50E2403FFE41253
:10026B00035190002AF0E50C24051203E690002BB5
:10027B00F0E50C24061203E690002CF0E50C2407A5
:10028B001203E690002DF0E4900074F0900073746C
:10029B000512041A4402F054FE807A900074E004B4
:1002AB00F0E0D3940F748094804002E4F0E50D5499
:1002BB000FFF900074E06F6007900027E04401F09F
:1002CB00E4FFEFC39406748094805021EF2402FD69
:1002DB00E4120367FE900073E02429F582E43400F6
:1002EB00F583EEF0900073E004F00F80D59000736F
:1002FB00E0FF900028E0D39F501F900027E0FFC342
:10030B0013540364017007EF54F944048007E4901D
:10031B00007312041AF0120D03229000767403F08E
:10032B0090007E747FF022900076F0900075E51CB3
:10033B00F0900029E02440900077F090002AE02212
:10034B00F0EF2402FFEE33FEE50C2FF9E50B3EFA3E
:10035B00020C2DAF0E7E00EF2401FDEE33FCAB0A39
:10036B00E50C2DF9E50B3CFA020C2DFF900078F013
:10037B00E490007EF022900023E0FCA3E0FDA3E0DC
:10038B00FEA3E022900076F0900075E51CF0229021
:10039B00007974FFF0A37455F0A374FFF0A37455A8
:1003AB00F022EB2FFFEA3EFEE93DFDE83CFC020CA0
:1003BB006A7417900000F09000137408F0229000FC
:1003CB0077F090002AE0900080F022E4F518751782
:1003DB0050F516F515FF7E11FDFC22F9E4350BFAED
:1003EB00020C2DE508FEE4250AFFEE3509FE2290EE
:1003FB000029E090007722E0F8A3E0F9A3E0FAA34C
:10040B00E0FB22E50F14C3951075F008A4FF22F052
:10041B00900027E054F922900027E0C313540364A3
:10042B000222F090001CE054F022740B2EF582E4B3
:10043B003400F5832290001CE0540F22AD1D7E107A
:10044B00120EABAD1B22900029E0244090007722C6
:10045B00E4FEF508900016F0EF2483601A248270F6
:10046B000302054024BF600302056F740D1203BE27
:10047B00751910751A00221203BC751911751A0023
:10048B00E4FEEEC394087480948050091204357412
:10049B00FFF00E80ED900075E090000BF090007671
:1004AB00E0FF90000CF090007EE0601790000DF0E4
:1004BB00900077E090000EF0900080E090000FF03D
:1004CB00020568900077E090000DF0EFFD7C00C313
:1004DB009402748094804008900078E090000EF0B5
:1004EB00C3ED9403EC648094804008900079E09015
:1004FB00000FF0900076E0C3940474809480400861
:10050B0090007AE0900010F0900076E0FD7C00C344
:10051B00940574809480400890007BE0900011F06B
:10052B00C3ED9406EC64809480403290007CE090A4
:10053B000012F080281203BCE4FEEEC39408748012
:10054B0094805019851A82851983E493FF12043520
:10055B00EFF0051AE51A700205190E80DD900019EF
:10056B007401F022120ED5227404120332FF900094
:10057B0078F090002BE0FE900079F090002CE0FDDD
:10058B0090007A12037AEF24FE7003020627147090
:10059B000302062724027076EEFB7A00F4701BED43
:1005AB00701890001CE0FF540F6402700DEF543F65
:1005BB004440F054F04403F08062EB64554A704CB5
:1005CB0090002CE07046120381F5188E178D168C57
:1005DB001590001F120384FF120A2390002DE06573
:1005EB001D702BA3E0B51B229000767406F09000D3
:1005FB007BE51DF0A3E51BF07F031204470F120EE2
:10060B00AB7DAA7F00120EAB80128002800012031A
:10061B0025900029E0120342900080F07F00229089
:10062B000000E024F4602C14603624F670030206FC
:10063B00CA240C60030206C7900001E589F0E06450
:10064B00557008900000740CF080749000177402C1
:10065B00F0806C900002E589F0E0FF12045B805F94
:10066B00900013E0FF900016E06F7038900014E5D7
:10067B0089F0A3E0FF900002E0FD750B01750C0003
:10068B00750D03900013E0FB120B44900014E0B5C2
:10069B00070A900002E0FF120E9080209000177462
:1006AB0001F08018900016E02403F582E43400F585
:1006BB0083E589F0900016E004F08003120ED5C29A
:1006CB00D8221204227075120393A3740212033BF7
:1006DB00120377A3E004FF900078E0FE6F600990AF
:1006EB000027E04408F0800590007FEEF090002793
:1006FB00E020E34820E0451204406404703E900083
:10070B001FA3A3E0FEA3E0FF90001EE02FFF9000CD
:10071B001DE03EFE7B017A00792B900028E024FE41
:10072B00F514120CBD900028E024FEFFE434FFFE0C
:10073B0090001EE02FF090001DE03EF0900027E0AF
:10074B0020E00330E31B120325900029E012034243
:10075B00900080F0900027E030E3069000807473E7
:10076B00F07F0022011C00604E00270000000000FB
:10077B00000000000000000000000000000000006E
:10078B00000000000000000000000000000000005E
:10079B00000000000000000000000000000000004E
:1007AB00000000000000000000000000000000003E
:1007BB000000000000000000004C0075000000006D
:1007CB0000000000000000004B001C0000000000B7
:1007DB000000000000005C000000000000000000B2
:1007EB0000000000000000000000000000000000FE
:1007FB000000000000011D00011B00021910000089
:10080B0078FEE4F6D8FD9000007FF87E0FE4F0A3AD
:10081B00DFFCDEFA75811D0208600209B7E493A3C1
:10082B00F8E493A34003F68001F208DFF48029E497
:10083B0093A3F85407240CC8C333C4540F4420C8E3
:10084B00834004F456800146F6DFE4800B0102047A
:10085B00081020408090076FE47E019360BCA3FFDB
:10086B00543F30E509541FFEE493A360010ECF54AF
:10087B00C025E060A840B8E493A3FAE493A3F8E49E
:10088B0093A3C8C582C8CAC583CAF0A3C8C582C80A
:10089B00CAC583CADFE9DEE780BE900019E07003AA
:1008AB00020935900018E06003020935900002E060
:1008BB00FD750B01750C00750D0B900013E0FB7FA4
:1008CB0001120B44900014EFF07B017A00790BE0DE
:1008DB00FD900013E0F50C120E3F120ED5E49000C4
:1008EB0019F090000DE06471701890001CE0FFC4CB
:1008FB00131354036401700A120DB290001CE054E0
:10090B003FF090000DE06451702090001CE030E54A
:10091B00191203D6120A237F091204471F120EABBA
:10092B0012110090001CE054DFF022740612038FAA
:10093B00900029E0FC120340FE04120377EE24FD25
:10094B0060352402705990002BE0704BA3E06411CA
:10095B007045A3E06422703FA3E0643370399000CC
:10096B001CE0FF540F6401702E12039AEF54F044F5
:10097B000290001CF0803290002BE064447018A3AE
:10098B00E064557012A3E06466700C90001CE044A8
:10099B0010F012039A80121203251203FA80071229
:1009AB000325900077EC1203CC7F0022E4FFEFC30A
:1009BB0094C87480948050031F80F31203D6120ADC
:1009CB0023901000E4936016A3E493601190100839
:1009DB00E493B51B09A3E493B51D0312110090100A
:1009EB0002E493F51C90402774B3F0120D79120CAE
:1009FB007643FF10904056E054EFF0D2B443FD0124
:100A0B00904054E054FEF0D290904026E04401F028
:100A1B00120E681208A580F18F148E138D128C1193
:100A2B00904022E054FDF0E04404F0E04408F0AFC5
:100A3B00147808120C57904024EFF0AF18AE17AD96
:100A4B0016AC157808120C57EF14A3F0904022E067
:100A5B004402F0904022E054107E0060047F01803D
:100A6B00027F00EF4E60EC904022E054FEF0A3E0DA
:100A7B00F51D904022E04401F0A3E0F51B222081FC
:100A8B0019900000E0705904F0539DFE75A300F51A
:100A9B00A2E490001AF0A3F08043900000E0640100
:100AAB00703E539DFE90001AE5A3F0A3E5A2F090D3
:100ABB00001AE0FEA3E0FFC394B8EE940B5013EFC3
:100ACB009426EE9407400B900000740BF0120AEE84
:100ADB008005E4900000F075A30075A201439D0111
:100AEB00C28A22C2A890404CE04420F0A3E044808C
:100AFB00F0C2DFD2DEC2DDD2DCC2DBC2DA538DDF65
:100B0B00438D10904042E4F0A3744DF0904042C0EE
:100B1B0083C082E0547FFFA3E0D082D083CFF0A3C9
:100B2B00EFF0904042C083C082E04410FFA3E0D0BE
:100B3B0082D083CFF0A3EFF0228F088D09AF03E4AF
:100B4B00F50EF50FFEEEC39F5030AB0BE50D2EF9F6
:100B5B00E4350CFA120C2D250FF50FE4350EF50EBE
:100B6B00D3E50F94FFE50E9400400C7401250FF5AF
:100B7B000F74FF350EF50E0E80CBC374FF950FF57A
:100B8B000FE4950EF50EAF0F22900000E0FF7E00F4
:100B9B0064017008F090001704F08036EF640B4E80
:100BAB007002802AEF640C4E700C900000F09000E5
:100BBB00177403F0801CEF640D4E700C900000F066
:100BCB009000177404F0800AEF64174E70049000C5
:100BDB0000F0120ED5539DDF22E4F50FF510F51141
:100BEB00120393A37406F0900029E0FE120340FF5A
:100BFB00900078F0A374FFF0A37401F0A3F0A304AA
:100C0B00F090002BE064017005EF64016013E49039
:100C1B00007EF0120325900077EEF09000807401B7
:100C2B00F022BB010689828A83E0225002E722BBB5
:100C3B00FE02E32289828A83E49322EB9FF5F0EA9A
:100C4B009E42F0E99D42F0E89C45F022E8600FECF3
:100C5B00C313FCED13FDEE13FEEF13FFD8F122ECE3
:100C6B00F0A3EDF0A3EEF0A3EFF02290404CE05494
:100C7B00F7F0539C7F439C40439C20439C10539C18
:100C8B00F7539CFD539CFE539D7F539DBF539DDF9C
:100C9B00539DEF439D08539DFB539DFD439D017554
:100CAB00A75D75A6C175A55D75A4C275A30075A2D8
:100CBB0001228E0F8F108B118A128913E4F515F513
:100CCB0016C3E5169514E5159400502BAB110513BF
:100CDB00E513AA127002051214F9120C2DFCE51083
:100CEB002516FFE50F3515FEAD04120EAB0516E507
:100CFB001670CE051580CA22900029E024EF602DD6
:100D0B0024F8602C24F2601624F6601524FD601480
:100D1B0024FE601314601324277018020D3F020980
:100D2B003602057302007E0206CD020EBE020DEAEC
:100D3B00120BE4227402120332120376EF24FE60CC
:100D4B00091460042402701B801390001CE0FFC484
:100D5B001354017016EF54F04401F0800E12042E60
:100D6B00F0800812032574101203C97F0022E4904F
:100D7B000018F0C2DC904042C083C082E054EFFF09
:100D8B00A3E0D082D083CFF0A3EFF053FCFD9040D3
:100D9B0053E054FDF053DBDF53DBEF43DB08D28929
:100DAB00C288C28AD2A822E4F508750911F50A9007
:100DBB001000936008A3E493600312110012044027
:100DCB006403701AF5081203EEC3947F5010120ED1
:100DDB0015EF60061203EE120E15050880E822745B
:100DEB000212038F900029E0FE120340120376EFEC
:100DFB0024FE600304700990001CE04420F080077F
:100E0B00120325EE1203C97F0022904026E0440115
:100E1B00F075850575850375845A75841F8F828ED1
:100E2B008374FFF0758508E585541064107F00709E
:100E3B00027F01228B088A09890AAE05E4FDEDC306
:100E4B00950C5014AB08E50A2DF9E43509FA120C90
:100E5B002DFF120ECD0D80E6AF06020ECD308A03AC
:100E6B00120A8930D80312062AE59D54206003121A
:100E7B000B94E59D54406003539DBFE59D548060EA
:100E8B0003539D7F22E4F508F509EF24C4701090FD
:100E9B000003E0B51C097B017A0079031201D8220B
:100EAB008F828E8375850175845A75841FEDF0755D
:100EBB00850822120393A37401F012045112037AD2
:100ECB00FF228F8930D9FDC2D922E4900000F002B5
:020EDB000D798F
:00000001FF
